:10000000E01A002001670100952E0000992E0000E3
:10001000A70B0000000000000000FFFF54000000DC
:1000200004180F00000000000000000000000000A5
:1000300000000000000000000000000000000000C0
:100040000000000000000000000000007E00000032
:0400500000000000AC
:10005400E01A002001670100952E0000992E00008F
:10006400A70A0A010001000004180FAC20667E00F4
:10007400000000000000000000000000000000007C
:10008400000000000000000000000000000000006C
:100094000000000000000000FFFFFFFFFFFFFFFF64
:1000A400FFFFFFFF00E00700000000000000000069
:1000B400FFFFFFFFFFFFFFFF28000000000000001C
:1000C400000000000000000000000000000000002C
:1000D40000000000000000007C4000207C40002064
:1000E400E01A0020345203009CAD0200801100206D
:0C00F4004C11002000000800000000007B
:10010000E01A002001670100952E0000992E0000E2
:10011000A12E00009D2E0000A52E0000FD6601000E
:10012000FD660100FD660100FD660100FD6601003F
:10013000A92E0000FD660100FD660100FD660100BC
:100140003147000089650100E53000001C2F0000E8
:10015000D15E0100F565010095650100AD65010006
:100160008D650100653E0000393F00002159000007
:10017000A59400001C2F00001C2F00008513000018
:10018000FD6601001C2F00005D3F00001C2F0000D9
:100190001C2F00001C2F00001C2F00001C2F000033
:1001A0001C2F00001C2F00001C2F00001C2F000023
:1001B000F965010091650100C94B0100B5440000DB
:1001C000396601001C2F0000B94B01001C2F0000F4
:1001D0001C2F00001C2F00001C2F00001C2F0000F3
:1001E0001C2F0000FD660100FD6601001C2F0000B1
:0C01F0001C2F00001C2F0000FD66010009
:1001FC00F8B500BFF8BC08BC9E467047F8B500BF08
:10020C00F8BC08BC9E46704710B5054C237833B932
:10021C00044B13B10448AFF300800123237010BDCD
:10022C002C20002000000000E04C030008B5034B1C
:10023C001BB103490348AFF3008008BD0000000068
:10024C0030200020E04C0300154B002B08BF134B53
:10025C009D46A3F5803A00218B460F461348144A5D
:10026C00121A2AF010FD0F4B002B00D098470E4BA2
:10027C00002B00D098470020002104000D000D48F1
:10028C00002802D00C48AFF300802AF0C5FC2000F7
:10029C00290009F067FB2AF0ABFC00BF0000080046
:1002AC00E01A002000000000000000002C200020BC
:1002BC007C40002000000000000000002DE9F0430D
:1002CC006A4E3378012B87B0044613D103780E2B7A
:1002DC0010D94278192A0DD18278952A0AD1C27880
:1002EC00012A07D10079022804D165792DB1012D9D
:1002FC0000F09B8007B0BDE8F0835D49DFF88C818E
:10030C000BF000FE23786F1CEDB2AB4269D2594959
:10031C0002200BF0DBFD23782F2BEBD122466B4612
:10032C0052F8080F516803C318461D460AF088F9A5
:10033C0000231DF80310EA5C914240F08D800133DC
:10034C00082BF6D14C4B617C00229A77227C42EA36
:10035C0001221A8032B1E17CA27C42EA01225A804D
:10036C00002A45D14FF0FF37444C80220021204613
:10037C002AF089FC192363709523A3704FF00109AF
:10038C007B424FF002080025237204A884F80390E6
:10039C0084F8048084F80590CDE904550AF050F9EE
:1003AC0004AA03CA1223C4F80900C4F80D1065741A
:1003BC002946A5742370204616F030FC304940467F
:1003CC000BF084FD002F95D116F08AFB4B4604AA46
:1003DC007F2126208DF8107003F058F986F80080E4
:1003EC0088E7625D414602200BF08CFD3D4689E7B3
:1003FC002146227D1A7151F8152FC3F805204A6841
:10040C00C3F8092003F10D0104F11D0204F12D00C4
:10041C0052F8045B41F8045B8242F9D194F82D2028
:10042C005A7701229A7700279EE7122B7FF462AF4E
:10043C00224602AB52F8090F516804AD03C328469B
:10044C000AF0FEF8002302AAD05CE95C88420BD1CA
:10045C000133082BF8D14DE70A4902200BF036FD89
:10046C00204600F087FA45E70749F6E768200020A8
:10047C00D4AF0200EAAF0200482000206A2000201E
:10048C00EDAF0200F7AF020009B00200E6AF0200C8
:10049C00F0B54E4D4E4B2E7899B0002201241A70B7
:1004AC008DF80B403EB1A6421FD00A2148481BF0E4
:1004BC0033FA19B0F0BD23460DF10B027F21262033
:1004CC0003F0E4F8434816F0BBFA204616F010FC93
:1004DC00112016F0E1FB1321304616F0EFFB3E4BDA
:1004EC001C702B7801332B70DFE73B4E3378022BDB
:1004FC00DBD13A4CA37F002BD7D027460AAB57F859
:10050C00050F796803C32388ADF8203023798DF863
:10051C00233013238DF8223040F20223ADF824301F
:10052C0008A86388ADF8263000F0BFFE637F8DF815
:10053C0040300CAA04F10D0394461D341868596818
:10054C00154603C50833A3422A46F7D1604600F08E
:10055C00B7FE18AD182200210DF146002AF093FBCE
:10056C0043F2640325F81C3D284600F0B4FE002439
:10057C001B4B039303A8ADF810408DF8124000F00C
:10058C00B5FE79683868ADF81C4005AB03C305A807
:10059C0000F0B7FE012000F07DFB2146012000F0A9
:1005AC008BFB0323337020230120CDE9005322461B
:1005BC0041F254234FF680418DF844000AF0ABFF12
:1005CC0040F2016016F04EF9FEE700BF69200020F2
:1005DC004C3A0020C902000068200020482000206E
:1005EC0000F8FF0708B51EF0E7FB052101204FF0CE
:1005FC00FF3200F03FFB64210248BDE808401BF0CD
:10060C008BB900BF4C3A002038B50C46054601F0BA
:10061C00DDFC0135B0FBF4F101FB1400284480B281
:10062C0038BD000070B596B006A800F039FEBDF8D4
:10063C0018206249624D02200BF048FC9DF91A20EB
:10064C00604902200BF042FC9DF81B205E49022001
:10065C000BF03CFC9DF81C205C4902200BF036FC96
:10066C009DF81D205A4902200BF030FCBDF81E20CD
:10067C00584902200BF02AFC574902200BF042FC8F
:10068C00002406AB234429461A7A022001340BF0CD
:10069C0039FC082CF5D15149494E02200AAD0BF01A
:1006AC0015FC284600F007FE4D4902200BF02AFCF1
:1006BC0000242A5D3146022001340BF023FC102C5F
:1006CC00F7D148493E4D02200BF000FC9DF8382034
:1006DC00454902200BF0FAFB404902200BF0F6FBD7
:1006EC000FA800F0F3FDBDF83C20404902200BF0B0
:1006FC00EDFB3F4902200BF005FC08240DF13E02F6
:10070C0029460220013C0BF0FDFB14F0FF04F5D14F
:10071C0038492B4D02200BF0D9FB10240DF1460269
:10072C0029460220013C0BF0EDFB14F0FF04F5D13F
:10073C002A49234E02200BF0C9FB01A800F0D1FD81
:10074C00019A2D4902200BF0C1FBBDF808202B4962
:10075C0002200BF0BBFB9DF80A20294902200BF06C
:10076C00B5FB03AD1D4902200BF0B0FB284600F091
:10077C00C3FD244902200BF0C5FB2A5D3146022043
:10078C0001340BF0BFFB082CF7D1BDF814201E4927
:10079C0002200BF09BFB114902200BF097FB6846E3
:1007AC0000F0B5FD009A194902200BF08FFB0B49A4
:1007BC0002200BF08BFB16B070BD00BF1BB002000B
:1007CC00E6AF02002EB0020045B002005EB002009F
:1007DC0075B0020089B00200A0B00200EAAF0200BE
:1007EC00B1B00200ECAF0200BFB00200D5B0020005
:1007FC00E0B00200E9B00200F1B002000AB1020060
:10080C0022B1020034B1020041B1020058B1020021
:10081C002DE9F84F384B00221A70384B114603F56E
:10082C00A56093F882204AB1B3F88020013292B2CD
:10083C00632AA3F8802088BF83F882108433834214
:10084C00EFD12F4D00242F46281990F8823053B148
:10085C00B0F88010013989B2A0F8801019B980F86D
:10086C00821016F0DBF98434B4F5A56FECD10023BB
:10087C00FA1892F8822082B98433B3F5A56FF7D1B8
:10088C000A211D48BDE8F84F1BF046B8F25C414602
:10089C0002200BF037FB5B4617E01A49184DDFF8C6
:1008AC006CA0DFF86C90DFF86C8002200BF00EFB74
:1008BC00002495F88230A3B12246514602208426AA
:1008CC000BF020FB06FB047600232A7803F1010BC6
:1008DC00DBB29A42DAD2B5F88020494602200BF0FE
:1008EC00F5FA01340A2C05F18405E2D106490220FF
:1008FC000BF0ECFAC4E700BF543A0020EA200020C9
:10090C001226002085B10200EAAF02006BB1020092
:10091C0077B10200E6AF020010B54FF4A564224691
:10092C00002107482AF0AFF92246002105482AF099
:10093C00AAF900210448BDE810401AF0EDBF00BF31
:10094C0012260020EA200020543A002030B50B7803
:10095C00027893420BD101239A4201D2002030BD80
:10096C00C55CCC5CA54202D10133DBB2F4E74FF09D
:10097C00FF30F4E7F8B53C4F064600243D463819E5
:10098C0090F8823023B13146FFF7E0FF00286AD09F
:10099C008434B4F5A56FF2D10023334A18461946B6
:1009AC0092F88240DFB234BB842000FB0350012359
:1009BC0080F88230A0F88040802231462AF058F925
:1009CC002A4B00210D460A461C4693F88200CFB2F2
:1009DC0060BB842303FB014401230A2184F8823089
:1009EC00FFF712FE8022A4F8800031462046BDE8B5
:1009FC00F8402AF03DB9B2F8804001338C4284BFF4
:100A0C00384621460A2B02F18402C9D1842202FB0A
:100A1C000052012382F8823000EB40100023A2F830
:100A2C0080303146802205EB8000C7E7B3F88000A8
:100A3C000131904284BF3D4602460A2903F18403EA
:100A4C00C3D1842707FB0547012387F88230002098
:100A5C00FFF7DAFD05EB4515A7F88000802231463B
:100A6C0004EB8500C3E7F8BDEA2000201226002025
:100A7C0070477047704700004FF4804310B1024A32
:100A8C0013607047014AFBE73CA000443CA00046C1
:100A9C0010B50121054805F09DF8012304220E2113
:100AAC001846BDE8104005F023BF00BF00350A0012
:100ABC00024B1868B0FA80F040097047BC09144228
:100ACC00FFF7D6BFFFF7D5BFFFF7D4BF10B5012195
:100ADC00054805F07FF801231A460F211846BDE89A
:100AEC00104005F005BF00BF00350A002DE9F041AC
:100AFC0004462020884617461E46069D2AF0B0F86C
:100B0C000471002484714471C4600481C0E90487B9
:100B1C00C0E906650146BDE8F041014800F0A2BA03
:100B2C003C2B00202B4B00222DE9F0411A702A4B54
:100B3C001C68ECB1294D2A4F4FF6FF7694F80580CE
:100B4C00B8F1000F07D0B8F1010F1FD0002363716B
:100B5C00E360238109E084F806802369984798B103
:100B6C002389A4F80880B34208D12468002CE5D16D
:100B7C0032211848BDE8F0411AF0CEBE636998479F
:100B8C00637901336371F0E72081EEE7E36884F861
:100B9C0006800133AB4288BF3B46E360236998472C
:100BAC00E268804678B9238901339BB232202381D5
:100BBC00504353B1A369A4F8088098476379C4F8EB
:100BCC000C80013BDEE7002323813220E369504394
:100BDC009847CAE75C3A00203C2B00209F86010016
:100BEC00A086010010B50446074800F01DFA24B990
:100BFC000648BDE810401AF083BE21460348BDE804
:100C0C0010401AF089BE00BF3C2B00205C3A00203B
:100C1C0010B50446074800F007FA24B90648BDE8A9
:100C2C0010401AF06DBE21460348BDE810401AF082
:100C3C0073BE00BF402B0020643A002070B50546FF
:100C4C0028200E4614462AF00BF800234371057138
:100C5C00047480F8204046628361C0E90233C361AA
:100C6C0043610146BDE87040014800F0FBB900BF8C
:100C7C00402B002010B5064B1B6843B11C798442F5
:100C8C00FAD1C3E9061293F8202059611A7410BDE9
:100C9C00402B0020074B1B6853B11A798242FAD1C2
:100CAC000022C3E906225A6193F820201A74704777
:100CBC00704700BF402B0020044B1B682BB11A79E6
:100CCC008242FAD183F8201070477047402B0020E5
:100CDC00214B70B500251D70204B1C68002C30D0AA
:100CEC00012663798BB1A2681AB1E3682BB1013B81
:100CFC00E360636A207C984720E0237C013AB3FAD6
:100D0C0083F3E2605B092374F3E7D4E9063292B112
:100D1C00511C1CBF02F1FF32E26113B1013BA36114
:100D2C00E7E7626902B1531EA361237C002B0CBF61
:100D3C0033462B46E7E753B1013BA3612468002CF3
:100D4C00CFD119210448BDE870401AF0E5BD636AA3
:100D5C0094F82000CFE700BF643A0020402B00201D
:100D6C001FB5104B1A88104B1B889A4286BFD11A9C
:100D7C0088B200204FF47A7141430C4891FBF2F198
:100D8C000078029089B20A20B1FBF0F400FB141138
:100D9C0089B2CDE90041022005490BF097F804B067
:100DAC0010BD00BF482B0020462B00204D2B0020EF
:100DBC009DB1020030B5274B00221A70264B1978D2
:100DCC00012991B040D002293DD124490B8801332F
:100DDC009BB2312B33D80B8010AC3F2304F8403D31
:100DEC00012501F0F3F8631928550235000A3F2D4F
:100DFC005870F6D11A4B1B4D1B888DF801301B0A0D
:100E0C008DF80230FE238DF803302B8801338DF8DA
:100E1C00043000211B1220468DF8053015F0FEFE23
:100E2C0090B92B88104A01332B80138863B1013B96
:100E3C009BB2138043B900F0D3F811B030BD0A80D7
:100E4C00FFF78EFFC8E71A700A2102481AF064FDFA
:100E5C00F3E700BF6C3A00204E2B0020522B0020F1
:100E6C004A2B0020482B0020502B0020F7B51C4F9C
:100E7C003878012802D11B49022002E0022805D152
:100E8C00194903B0BDE8F0400BF020B8002000F089
:100E9C00BDFC164E164D3080012000F0B7FC2870BA
:100EAC00022000F0B7FC134C2070287815F0F4FEEB
:100EBC0008B11149E0E794F9001015F0FFFE08B1F4
:100ECC000E49D9E794F90010328801233B700220B7
:100EDC0000912B780A490AF0F9FF0A49CCE700BFC8
:100EEC004E2B0020F0B102000FB202004A2B002062
:100EFC00442B00204C2B00202EB202003DB20200ED
:100F0C004AB20200ECAF02002DE9F743DFF8C890BB
:100F1C0099F80000012806D12349022003B0BDE84E
:100F2C00F0430AF0D3BF022801D12049F6E7002094
:100F3C0000F06CFCDFF8A4801D4EA8F80000012026
:100F4C0000F064FC3070022000F064FC194D1A4F64
:100F5C002870032000F05AFC3880307815F09CFE85
:100F6C0008B11649D9E795F9001015F0A7FE08B19C
:100F7C001349D2E7134B1880134B022418800A2113
:100F8C00124889F800401AF0C7FC3988019195F98C
:100F9C000010009133780E49B8F8002020460AF072
:100FAC0095FF0C49B9E700BFF0B102000FB2020087
:100FBC00442B00204C2B0020502B00202EB2020082
:100FCC003DB20200482B0020462B00206C3A00203A
:100FDC009AB20200ECAF02004E2B00204A2B0020EC
:100FEC0010B50C4B1878002401281C7005D10A4947
:100FFC000220BDE810400AF069BF022808D1074959
:10100C000AF064FF064B1C70BDE81040FFF7A8BE49
:10101C000449EDE74E2B002077B2020082B20200A9
:10102C006C3A00208DB20200002303607047006808
:10103C0008B9704718460368002BFBD1704703684A
:10104C0010B53BB1002499421A6806D11CB9026054
:10105C0000230B6010BD2260FAE71C46002AF9D071
:10106C001346F0E738B50546FFF7E9FF00230B60A0
:10107C00FFF7DDFF08B9296038BD0160FCE700000F
:10108C00C38913B9024B01221A700020704700BFAC
:10109C00552B00200020704730B5314B1C7885B0A3
:1010AC00002C5AD1012520461D70FFF79BFD2046D0
:1010BC00FFF7AEFD22462B492846FFF7BFFD2A4B12
:1010CC002A4A00932A492B4B2846FFF70FFD294645
:1010DC002846FFF7F1FDFFF71FFC02A8CDE90244FB
:1010EC0009F0AEFA244902200AF00CFF9DF8082002
:1010FC00224902200AF006FF9DF809201F49022010
:10110C000AF000FF9DF80A201C4902200AF0FAFEA2
:10111C009DF80B20194902200AF0F4FE9DF80C20D2
:10112C00164902200AF0EEFE9DF80D20134902200C
:10113C000AF0E8FE9DF80E20104902200AF0E2FEAB
:10114C000E499DF80F2002200AF0DCFEFFF76AFA28
:10115C004FF47A710A481AF0DFFB05B030BD00BFBE
:10116C00542B0020850A0000D50A0000CD0A00008F
:10117C00BD0A0000D10A000002230300E6AF020002
:10118C00743A002008B5FFF7A1FCBDE80840FFF752
:10119C007FBC00002DE9FF413B4C3C4F23780025E0
:1011AC00012B3D70264631D006D3022B59D0642139
:1011BC0036481AF0B1FB59E001200DF10E030093F3
:1011CC00019041F254232A464FF680410AF0F6F979
:1011DC009DF80E00012816D14FF0FF321421FFF7B5
:1011EC0049FD23780133237004AB002203F8012D51
:1011FC002021CDE90031012041F254234FF68041EA
:10120C000AF089F9D3E723780233ECE7204B214F1E
:10121C001978DFF8888029B102233D80A8F80050A6
:10122C002370C4E73B8801339BB2632B14D83B80FB
:10123C00B8F8003001339BB240F6B7329342A8F8AD
:10124C000030B4D900233B80A8F800301DF0B4FD69
:10125C00337801333370AAE7084639800BF0A1FBD1
:10126C00E6E709F035F820B9FFF7BCF904B0BDE8A2
:10127C00F0810120FFF70EFD01210846FFF71CFD50
:10128C00054B3D701D70F1E7562B0020743A002081
:10129C00552B0020582B0020E81A00205A2B002038
:1012AC0010237F22072102F0DBB9024610237F2195
:1012BC00072002F0EBB911237F22062102F0D0B9EE
:1012CC00024611237F21062002F0E0B91A237F2267
:1012DC00082102F0C5B902461A237F21082002F02A
:1012EC00D5B908237F22092102F0BAB90246082396
:1012FC007F21092002F0CAB90A237F22194602F085
:10130C00AFB90A2302467F21184602F0BFB9042365
:10131C007F22194602F0A4B970B5134C8A00A318A9
:10132C0022449B781D09062D98BF104E03F00F0325
:10133C0094BF755DFF25062B05719ABF0C4DEB5CB8
:10134C00FF234371FF3B18BF01238371D37014F843
:10135C002130084C4370537883700146204604F0CA
:10136C004FFB0123A36070BD5C2B0020C7B30200B0
:10137C00C0B30200002000407FB522492248002261
:10138C00FF23CDE901228DF8093003784C6C8D6B6D
:10139C0003922C40E407DBB228D5022B26D88C6CA8
:1013AC001A4901EB8301A5B2CE78194906B326047C
:1013BC001ED521F813201749012202FA03F30A78EB
:1013CC001343154A0B701378CBB100231478DC400F
:1013DC00E407D9B20FD501701078012404FA03F395
:1013EC004340DBB201A81370FFF796FF04B070BD49
:1013FC0021F81350DFE70133032BE7D1F6E7032382
:10140C000370F3E700200040682B00205C2B0020C9
:10141C006C2B00206A2B0020692B002001207047C8
:10142C00012070470120704708B5054B1B681B68ED
:10143C00587900F078F800200BF0A6FE012008BDCA
:10144C00A43D002038B5C37B05460BB1832038BDC5
:10145C00C47C2CB9FFF7E8FF20B9EB7B002BF5D14E
:10146C008120F4E72046F2E738B5C37B002B437D9F
:10147C0014BF8325C325012B044615D0637DDBB92E
:10148C002368228A5988587909F09BFBA0B12368FC
:10149C005B889BB14FF6804293420DD1E37B002BCE
:1014AC0014BF8325812507E00368028A598858797F
:1014BC0009F090FB0028E1D0284638BD2046BDE855
:1014CC003840FFF7BFBF70470120704701207047BD
:1014DC0001207047B52070477047002070470020EE
:1014EC007047002070470020704700207047002094
:1014FC0070470020704770470020704701207047EC
:10150C000120704700207047002070470020704772
:10151C000020704700207047002070470020704763
:10152C0084207047704770477047002070477047A1
:10153C00002070476FF02F007047012070470000AB
:10154C0070B50C4615460C490C4A1E46002808BFBF
:10155C000A4603460A4901200AF0B8FC32460949FA
:10156C0001200AF0B3FC2B46224607490120BDE8B6
:10157C0070400AF0ABBC00BFCEB30200DBB302007C
:10158C00E2B3020008B402001EB40200002070474F
:10159C00034B1B681878012808BF0220704700BF56
:1015AC000C3300207047002070470020704700204B
:1015BC0070470020704700207047002070470020C3
:1015CC0070477047B5207047002070470020704767
:1015DC007047002070477047704700207047704775
:1015EC00704700207047704770470000094A00237D
:1015FC00FF21137082F8783082F8653082F87730EA
:10160C0082F8793082F87A1082F87B30024A1360C3
:10161C00704700BF722B00207C3A00202DE9F04768
:10162C000D468F680A683A490446202002F0A1F959
:10163C006B68ABB93749202002F09BF9202007F0EA
:10164C00E7FCEA681AB13449202002F092F93349D8
:10165C00202002F0A3F92020BDE8F04707F0D8BC09
:10166C00002CEBD0EB681BB12D49202002F081F946
:10167C00DFF8D880DFF8D890DFF8D8A0013F00263B
:10168C0017F8014F24B92549202002F087F9D5E736
:10169C002B691BB14146202002F06BF9752C24D02C
:1016AC00762C24D0772C24D0732C24D0722C24D0DC
:1016BC00712C24D0622C24D06E2C24D02A2C24D033
:1016CC001849194B212C08BF1946202002F051F95A
:1016DC00212CD5D02B692BB153F82620134920206F
:1016EC0002F047F90136F6B2CAE74946EDE7514632
:1016FC00EBE70F49E9E70F49E7E70F49E5E70F4942
:10170C00E3E70F49E1E70F49DFE70F49DDE700BFEA
:10171C0037160300DFCB020005B50200ECAF020068
:10172C00F5B40200D7B40200DAB40200FFB4020030
:10173C009EB40200AAB40200B4B40200BFB402000A
:10174C00CAB40200DECB0200D4B40200C3250300ED
:10175C0093B4020087B40200F0B5214A92F87B30B2
:10176C00184452FA80F01F4B90F865C090F8665000
:10177C001F78A5EB0C050026EDB23046F4B2A5425D
:10178C0025D90CEB060313445B7811B10CB92D2B46
:10179C0017D0782B1FD0582B05D108B137240AE06D
:1017AC00013C012C14D9602B17D8402BF6D83A2BBE
:1017BC0034BF302400241B1BDBB29F4203D900FB37
:1017CC0007300136DAE7052382F879300020F0BDC6
:1017DC0010270020F5E70028E2D05724EBE700BFE4
:1017EC00722B0020E91A0020014B1B681868704707
:1017FC007C3A0020FFF7FABE034B93F8770093F87E
:10180C007B30C01AC0B27047722B00200021FFF74A
:10181C00A3BF000010B50A4B93F87B20024453FA87
:10182C0082F292F8652013445C78A4F12D0359429E
:10183C005941FFF791FF2D2C08BF404210BD00BF4E
:10184C00722B002030B50C4A92F87B300344C04315
:10185C00DBB2C00F39B1D51895F8664095F86550D4
:10186C00641B241A0C7042FA83F393F86530184405
:10187C00024B184430BD00BF722B0020732B00208C
:10188C00F7B50E460DF1070115461C46FFF7DAFFBA
:10189C009DF80730AB42074688BF8DF807501CB146
:1018AC009DF807402C1BE4B222463046002100F084
:1018BC0061FB30199DF80720394600F0FFFA9DF8BE
:1018CC00070003B0F0BD38B508220C460123FFF722
:1018DC00D7FF04F10803621E043413F8011D12F83B
:1018EC00015F1D70A3421170F7D138BD38B50146A8
:1018FC0005460120FFF792FED5E901436CB91C4661
:10190C00084D236863B12946202002F032F82146A5
:10191C000020FFF783FE1434F3E71B786E2BEFD017
:10192C0038BD00BFC325030008B50449202002F0D0
:10193C0020F82020BDE8084007F06ABB47B402003D
:10194C0038B5FFF7F1FF064D002461191434631903
:10195C0053F8143C03B938BD0020FFF75FFEF4E7E1
:10196C00ECC102002DE9F84F1F4B204D53F82020FD
:10197C001F49202001F0FDFF2B681BB9BDE8F84F73
:10198C00FFF7DEBF1B4FDFF874A0FFF7CDFF00267B
:10199C00B94697F87B30F4B2013B9C4204DB2868D3
:1019AC00BDE8F84FFFF7A2BF47FA86F34C4493F813
:1019BC0065800023C84494F8662094F86510521A88
:1019CC0003F1010BD2B2DBB2934205D30A492020BA
:1019DC0001F0CFFF0136DCE7434451465A78202012
:1019EC0001F0C7FF5B46E6E7EC1A00207C3A0020CA
:1019FC0042B40200722B0020C4250300D827030038
:101A0C002DE9F74F884C94F87730002B00F0A2802A
:101A1C00864B1B7813F0010F04F101071FD0002532
:101A2C00834E14E06319202093F8662093F86530F8
:101A3C00D21A44FA85F3D2B293F86510394407F000
:101A4C00E2FA3146202001F094FF0135EDB294F812
:101A5C007730AB42E6D87749202001F08AFF94F822
:101A6C0077300193DFF8D8E1734B002671461EF8EE
:101A7C00012B91F801C04FF00008ACEB020C07EB06
:101A8C00020A5FFA8CFC45461868002852D00138CF
:101A9C00D14619E02AB9002D4AD04FF00108143371
:101AAC00F2E719F8011BA1F1410BBBF1190F98BF1B
:101ABC002031A2F1410B98BFC9B2BBF1190F9CBFE9
:101ACC002032D2B28A42EAD1A9EB0A01614510F860
:101ADC00012FDFD1002ADED11D46584B1D6094F832
:101AEC007B30013384F87B30D5E901230136F6B223
:101AFC00002A35D01B786E2B31D03F2B23D04FF0E2
:101B0C000009C8464FF0070B042394F87710AA6815
:101B1C00B14212F808702BD8AFB1904498F801304C
:101B2C002A2B10D0212F1CBF032384F879300AE014
:101B3C001D46B4E7B8F1000F01D1002DCDD1022321
:101B4C0084F87930002594F87900002869D1686808
:101B5C0009F0AAFD03B0BDE8F04FFFF747BD1346EF
:101B6C00019AB24282D8032284F879201D46EAE712
:101B7C00732F09D8712F0BD2212F1FD0622F3CD07D
:101B8C00002F4BD1032246E0A7F17502022A45D85B
:101B9C00752F29D0762F2AD0732F2BD0722F47F682
:101BAC00FF7A18BF4FF0FF3A012148460193FFF727
:101BBC00D3FD5045019B01D984F87930AA68424481
:101BCC0052782A2A94F879201CBF08F101085FFA90
:101BDC0088F8002AB7D1212F1FBF013609F101095E
:101BEC00F6B25FFA89F990E74FF0FF0ADCE74FF69F
:101BFC00FF7AD9E74FF07F0AD6E794F87B204A4466
:101C0C0054FA82F292F8652022445278222AD5D0D6
:101C1C007B2AD3D0052284F87920CFE784F879B0D9
:101C2C00CCE7FFF79FFE95E7722B0020EE2B0020F0
:101C3C00C425030084B40200ECC102007C3A0020ED
:101C4C00D72B00202DE9F3415E4C5F4F06460D4625
:101C5C004FF0000866B90DF10701284607F0CEF9E0
:101C6C0078B1262800F0A980012384F879304BE064
:101C7C00002D00F0A28016F8013B8DF80730013DD5
:101C8C00EDB23A789DF807303B700D2A01D10A2B42
:101C9C00E0D00D2B0CD0A3F10A0251425141227815
:101CAC008846042AD6D8DFE802F0051D263C310010
:101CBC000121F4E721B1FFF7A3FE4FF00108C9E7BA
:101CCC00202B63D0222B07D10223237094F8782089
:101CDC00642A5DD10623C8E77B2B01D10323F4E7EB
:101CEC000123F2E709B9202BF0D194F87730112BAE
:101CFC003FD10323B9E7222BF7D00029E6D00523E7
:101D0C0084F879304FF0010804232370B8F1000FE8
:101D1C00A0D094F8790008B1FFF724FEFFF766FC19
:101D2C0098E77D2B94F87A0003D1FF28DDD00523AA
:101D3C009BE7602B13D8402B13D8392B8CBF002278
:101D4C0030229A1AD2B20F2A10D8FF280BD002EBED
:101D5C000012FF238DF8072084F87A30B6E757225B
:101D6C00EFE73722EDE784F87A2073E7202BDED1FA
:101D7C0070E70133DBB284F87730234494F8782091
:101D8C0083F8652000232370002994D1884661E7ED
:101D9C002378012B09D19DF80730A3F141011929B2
:101DAC009CBF2033DBB28DF80730A3189DF80710C9
:101DBC005970013284F878204CE7404602B0BDE8F7
:101DCC00F08100BF722B0020EF2B002049BA89B2A2
:101DDC004840C0F303114140080380B24840C3B2ED
:101DEC0080EA4310704715F01BBC000038B5A0F119
:101DFC00430305460A2B31D8DFE803F0060A0A1222
:101E0C001230303030301100BDE8384026F094BD2F
:101E1C0026F05EFD20B126F08FFD0028FBD138BDE9
:101E2C00114C20780028FAD10123443D237007F08F
:101E3C002BFD032D0DD8DFE805F00606090240F650
:101E4C00010014F00FFD00232370E8E740F60200B8
:101E5C00F7E77A21054800F0B5FCF4E78C2103483C
:101E6C00BDE8384000F0AEBCF02B00207AB5020083
:101E7C00704770477047704770477047704770479E
:101E8C0070477047002070477047704770470020BC
:101E9C007047704770470020704770477047704715
:101EAC000020704770470120704701207047704731
:101EBC007047704770477047704770478842F0B55D
:101ECC004FEA92031AD89BB29E00871904460D461E
:101EDC0004370434BC4205F104053AD1C3EB833317
:101EEC00314402EB8303013E304411FA83F39942EF
:101EFC0020D011F8012B00F8012FF8E7541E2044D4
:101F0C009BB22144A0EB830604460D46043E043CE0
:101F1C00B442A5F104050ED16FF003045C43C3EB8E
:101F2C00833302EB830321449BB201342044CB1A4C
:101F3C00994209D1F0BD2F792771EF78E770AF780E
:101F4C00A7706F786770E2E711F8012900F8012D8E
:101F5C00EEE715F804CC04F804CC15F803CC04F81F
:101F6C0003CC15F802CC04F802CC15F801CC04F81B
:101F7C0001CCAEE70244904200D1704700F8011B3F
:101F8C00F9E710B5013801390AB9104606E010F826
:101F9C00014F11F8013F9C4201D0E01A10BD013AEB
:101FAC0092B2F1E782B2074B42B11A80000C064B99
:101FBC000ABF4FF6CE2218801A8070474BF6EF629C
:101FCC00F3E700BFB41B0020B61B0020094B188898
:101FDC00020448BF80F0620042001A80064A13884F
:101FEC00190444BF83F4805383F00B035900118010
:101FFC0058407047B41B0020B61B0020034B1870D0
:10200C00034B1970034B00221A707047F92B0020F8
:10201C00F82B0020FA2B0020024B187800F07F00E0
:10202C00704700BFFB2B0020034B18780130C0B267
:10203C00187000F07F007047FB2B00201FB5030ABF
:10204C008DF80E300323009303AB8DF80D0000F0D8
:10205C00BDF905B05DF804FB1FB5030A8DF80F1030
:10206C0004218DF80E30009103AB8DF80D0000F0BB
:10207C00ADF905B05DF804FB2DE9F04389B00746D6
:10208C00BDF840509DF84460BDF84C4088460DF1B9
:10209C000900114608229946FFF710FF8DF81250DF
:1020AC00012E4FEA15258DF811908DF813508DF8EF
:1020BC00146017D0032E1CD1082212990DF11500B3
:1020CC00FFF7FCFE9DF850308DF81D301623009361
:1020DC00BDF8542002AB4146384600F077F909B000
:1020EC00BDE8F0838DF81540240A8DF816400F23B7
:1020FC00EDE70120F3E71FB50C46194602238DF8D6
:10210C000D2000930A4603AB0146204600F05EF911
:10211C0004B010BD70B586B0044616460DF10D0026
:10212C0008221D46FFF7CAFE0A2300932A4603AB7A
:10213C00342120468DF8156000F048F906B070BDCA
:10214C0030B585B00024ADF80A20021D92B2012AE8
:10215C001D46ADF80840ADF80610ADF8044003D9A3
:10216C004FF6FF72904207D1064A2B46127801A90E
:10217C0020F01EFA05B030BD014601AA204620F021
:10218C00DDFAF7E7B81B00202DE9F74FFF2A984638
:10219C001DBF464B1B689C5C002418BF6408B8F13B
:1021AC00FF0F1EBF414B1B6813F808700E4681468B
:1021BC0014BF7F0800271546FFF736FF4FEA192397
:1021CC008DF800008DF803600621360A68468DF8FC
:1021DC0004608DF801908DF802308DF8054019F0EF
:1021EC0001FFFF28064604D11824204603B0BDE8A1
:1021FC00F08F4FEA440B0BF1070A0AEB4701C9B207
:10220C0019F0A4FE0028EFD10446A3451BD10BF115
:10221C0006013A4601F0FE01304619F050FF5FFA14
:10222C008AF44FF0000A5FFA8AF5AF4223D833469E
:10223C00BDF8302006214846FFF782FF04463046A1
:10224C0019F074FDD1E72146284619F033FFA11D82
:10225C000246C9B2304619F032FF611CC9B2284699
:10226C0019F028FFE11D0246C9B23046023419F0BC
:10227C0026FFE4B2C9E76D00EDB22946404619F0DD
:10228C0019FF21460246304619F019FF691CC9B2E4
:10229C00404619F00FFF611C0246C9B230460234A9
:1022AC0019F00DFF0AF1010AE4B2BCE7581B00203B
:1022BC002DE9F04188B00F4602A9064608F0BCF89B
:1022CC0000287CD0FFF7B0FE8DF8100019F0AEFAA4
:1022DC008DF8110019F0AAFA000A8DF812000822E4
:1022EC0039490DF11300FFF7E9FDBDF808308DF801
:1022FC001C301B0A8DF81D300F219DF80D308DF808
:10230C001B6004A88DF81E3019F06CFEFF280446E3
:10231C0057D04FF000089DF80D305FFA88F29342C9
:10232C0008F101081DD801220DF10E01204619F00B
:10233C009BFE4FF000089DF80E305FFA88F2934236
:10234C0008F1010824D823463A4620210020FFF743
:10235C00F7FE0546204619F0E9FC284608B0BDE812
:10236C00F0810021304608F093F80DF107018DF84B
:10237C00070005460122204619F076FE2D0A01229F
:10238C000DF1070120468DF8075019F06DFEC2E7DC
:10239C000121304608F07CF80DF107018DF807009B
:1023AC0005460122204619F05FFE2D0A01220DF18F
:1023BC00070120468DF8075019F056FEBBE7A32500
:1023CC00CBE71825C9E700BF293F0020F8B51C460C
:1023DC000E4617460546FFF727FE9DF8181020708D
:1023EC00204619F0FFFDFF2804460BD003463A4661
:1023FC0028463146FFF7A4FE0546204619F096FC08
:10240C002846F8BD1825FBE708B5FEF7BBFEBDE86E
:10241C0008400AF03DBD08B5FEF73EFEBDE8084099
:10242C000AF060BDFFF7C3B8FEF734BE002070475A
:10243C0038B504460D46FFF7D6F829462046BDE8C8
:10244C00384007F0E7BAFFF7B6B8FFF7C2B8012279
:10245C00002109200BF088B92DE9F84F184E804661
:10246C000D461446994606F1010A0DB9BDE8F88FE0
:10247C00102D4FF00D02494650462F4628BF10270D
:10248C00FFF71CFD012333700D48F4730023B37365
:10249C00013422F069F80B495FFA87FBE4B242463B
:1024AC0012F8013B11F8010F434002F8013CA2EB7A
:1024BC000803DBB25B45F3D3ED1BADB29046D4E71A
:1024CC00002C0020FF2B00202DE9F04F374D85B05C
:1024DC001746BDF83880019003930D220F9B029391
:1024EC000E460146681CFFF7E9FC49232B70284671
:1024FC004FEA1823AB7385F80F8022F035F82B7850
:10250C0083EA17232B706B784FF002097B406B70BA
:10251C004C46AA464FF0000B21E0C4F1100CA7EB7F
:10252C000B031FFA8CFC9BB2634528BF63463046F5
:10253C00A11B00EB010C5FFA8CF2A0EB060C1FFA4E
:10254C008CFC9C451BD31C44E4B29B44102C1E44B5
:10255C001FFA8BFB03D1284622F006F80024BB455A
:10256C00DBD314B1504621F0FFFFB9F1010F4FF04E
:10257C000004039E47460BD04FF00109CAE710F840
:10258C0001CB1AF802E08CEA0E0C0AF802C0D0E774
:10259C00029806490422FFF791FC019B02982246FF
:1025AC00042105B0BDE8F04FFFF756BF002C00200A
:1025BC00F7B5099FBDF82040CDE9004706461D46FA
:1025CC00FFF782FF2CB13346012221462846FFF744
:1025DC0043FF002003B0F0BD2DE9F743BDF8287090
:1025EC000F4C1E46054688469146034639463046F2
:1025FC000122FFF731FF33464A4641462846CDE9D2
:10260C000074FFF761FF042221460B98FFF7B9FC19
:10261C00002814BF7E20002003B0BDE8F08300BF6B
:10262C00FC2B00202DE9F3410A4F0C469918154656
:10263C001E468046214438460422FFF73FFCCDE974
:10264C00006763192A4621464046FFF7C5FF02B0D2
:10265C00BDE8F081102C002000207047002070474E
:10266C007047704773B502AB03E906000446019D41
:10267C0018F024FE0646204618F02EFE9DF80000A9
:10268C008EB1202C0FD82B78012B36D803EB4313AB
:10269C00384923444FF6FF7531F81320AA4202D073
:1026AC00013221F81320344B344A33F8145032F8E9
:1026BC0014604FF6FF718D421CBF691C23F8141077
:1026CC0004F0FD01092930D1998A928A0144914282
:1026DC0035DA998233F81430B34204D3B54202D2BE
:1026EC002046FEF721FF264B0025EA5CA24228D0AB
:1026FC000135112DF9D102B070BD022BD3D11D4B78
:10270C0033F814204FF6FF718A421CBF013223F8B4
:10271C00142004F121014FF6FF7533F81120AA4261
:10272C001CBF013223F81120BDE71D2CD2D1598FCB
:10273C000144508F814201DA5987CBE7928A9A8201
:10274C00C8E726F008FA0F4B1B788342044603D8DF
:10275C00E0210D4800F036F804EB04140B4A2C442D
:10276C004FF6FF7132F814308B42C4D0013322F88B
:10277C001430C0E7763B0020243B0020D23A0020E6
:10278C00E5020300991B002068020300B03A002008
:10279C00522200210148FFF7EDBB00BF243B002073
:1027AC005222FF210148FFF7E5BB00BFD23A0020BF
:1027BC0008B5FFF7EDFFBDE80840FFF7F1BF42DEBB
:1027CC007047000038B504460D4614F0FDFF00F0CC
:1027DC00BDFC03F0BEFD2946204614F02EF92B4615
:1027EC0022460549202006F019FC29462046BDE862
:1027FC003840FFF7E4BF00BFF60203006D4B2DE934
:10280C00F0416D4C5A68A2655A6AE2656B4AD2F87F
:10281C0000122166D2F8042262669A6AA266DA6A0B
:10282C00E2661A6B22675A6B6267DB6BA26BA3675B
:10283C00D4E90F5312F0040F18BF1D4614F036F8EC
:10284C00002285420346606522655CD35C4A954252
:10285C0059D8AA696264E969A164B4F85810C1F343
:10286C000801062953D157498A4250D356498A4206
:10287C004DD211884DF64262914248D16268C4F83B
:10288C009420A268C4F8982040F201704F4A504935
:10289C00934238BF13460A468B423BD3D31AE364A8
:1028AC000023C4E91F33C4E92133C4E92333484E60
:1028BC00444FDFF814C1AE4232D8D4E91FC7D4E973
:1028CC002165D4E923124FF0000E013BDBB2FF2B44
:1028DC0041D1BEF1000F05D0C4E91FC7C4E9216581
:1028EC00C4E92312B4F85830C3F30803DA1E0F2AD4
:1028FC0055D8DFE802F03A5B474A545454545451CB
:10290C0054545454543E0022C4E911221D464FF431
:10291C002060BBE71E68B6F1CD3FBFD10433BBE7E7
:10292C0056F8042DBA42C6D36245C4D2D107C2D5DB
:10293C00002104EB010EDEF87CE09645BBD004319F
:10294C001829F6D10BB9052301E0013BDBB204EBEE
:10295C008301CA67AFE7E0464FF0010EBC4637462D
:10296C002E460D4611464246AFE740F60120BDE823
:10297C00F081184BDB6913F0020F40F2025318BFC1
:10298C001846F4E740F60320F1E740F60423B0F5CF
:10299C00206F08BF1846EAE740F60520E7E7013B41
:1029AC0040F607223D2B98BF1046E0E740F6022088
:1029BC00DDE700BF00ED00E00000002000E100E0DA
:1029CC00C01A0020140200009CAD02009C000020E4
:1029DC00E01A00200020054010B504F001F904466F
:1029EC0004F0F8F80022012101FA02F3234014D07C
:1029FC001B4B33F812301B4A062B13D040F2072125
:102A0C008B420DD1184919480C68844208D14CF2FC
:102A1C003C334B800B88138012E00132112AE3D136
:102A2C00104AF8E7104B58884FF20F01884214D126
:102A3C001988B1F5406F10D211804CF23C325A809B
:102A4C00084B1A8840F201739A4201BF084A094B9D
:102A5C00D2E90001C3E9000110BD4FF4C061EBE7FE
:102A6C000A0303001C2C00200000002007020FF0BA
:102A7C0094000020142C0020014B1888000A704789
:102A8C001C2C0020014B1888704700BF1C2C002008
:102A9C002DE9F04F4D4CA36BD4F850B0D4F840A0B6
:102AAC005A074FBF0027D4F84CB0D4F85480D4F850
:102ABC003CA05ABF464FDFF84091DFF84091454AA1
:102ACC0048BFB84613F0080F434B18BF1A46B7EB74
:102ADC0008061CBF7308642187B01FBF01FB0B33B2
:102AEC00B3FBF6F39BB205933C49CDF800804B4603
:102AFC00CDE9017A08BF0596054600F04FFFB3B249
:102B0C00CDE900931FFA8BF2059B3549284600F05E
:102B1C0045FFA36B5B070AD49C3E5E4507D1626DF3
:102B2C00304B9A4203D23049284600F037FFBA4561
:102B3C0001D8C24504D24A462C49284600F02EFF43
:102B4C00284606F065FA236E0BB9636EBBB32849B1
:102B5C00DFF8AC80DFF8AC90284600F00AFF0026C6
:102B6C000127226E07FA06F3134207D058F82620E5
:102B7C0013781BB14946284600F0FBFE0136202E87
:102B8C00EFD1DFF87C80DFF87C9000260127626EA5
:102B9C0007FA06F3134209D008EB8603D3F880201A
:102BAC0013781BB14946284600F0E3FE01360E2E81
:102BBC00EDD1284607B0BDE8F04F00F0E9BE0D4955
:102BCC00284607B0BDE8F04F00F0E8BE000000203A
:102BDC00E01A00201D06030016060300250603005C
:102BEC00530603009C0000208C060300B80603006B
:102BFC00D60603000507030011060300641D03003D
:102C0C001C070300361603002DE9F8430446FFF7B2
:102C1C0039FF40F60123984239D010D840F20253C4
:102C2C0098421DD040F20173984224D040F20153D7
:102C3C00984213D16549204600F0B0FE22E040F6E0
:102C4C00032398426CD03DD340F60423984200F005
:102C5C009C8040F60523984200F0B580BDE8F883CF
:102C6C005B49204600F09AFE5A4B5B495A6C204651
:102C7C0000F094FE06E0574A5849D2E92523204635
:102C8C0000F08CFE2046BDE8F84306F0C1B9514D6A
:102C9C005349204600F082FE95F86C309F0703D50F
:102CAC005049204600F07AFE95F86F305E0603D549
:102CBC004D49204600F072FE95F96F30002BE1DA99
:102CCC004A49B8E7434D4A49204600F067FE95F85B
:102CDC006830980704D06A6C3F49204600F05EFECD
:102CEC0095F96830002B04DA6A6F4249204600F0EF
:102CFC0055FEDFF80C81DFF8189100260127AA6E2B
:102D0C0007FA06F3134207D058F8262013781BB1A4
:102D1C004946204600F042FE0136082EEFD1B1E7BD
:102D2C002C4D3549204600F039FE2B496A6C204663
:102D3C0000F034FE95F86930590703D52F49204629
:102D4C0000F02CFE95F96930002B04DA6A6F2949E2
:102D5C00204600F023FE2A4FDFF8B4800826AB6E25
:102D6C00F340DA0707D557F8262013781BB14146F4
:102D7C00204600F013FE0136102EF0D195F8683085
:102D8C00002B7FF47FAF1F4955E7124D1E491C4F96
:102D9C00DFF87C80204600F001FE6A6C0E4920466C
:102DAC0000F0FCFD1026AB6EF340DB0707D557F89F
:102DBC00262013781BB14146204600F0EFFD01366A
:102DCC001A2EF0D15EE711494BE700BFA0030300B8
:102DDC00DD030300000000200D04030026040300A3
:102DEC00400403005804030092040300C5040300CC
:102DFC0001050300260503004A05030061050300D5
:102E0C002C030300A7050300D7050300F0050300FE
:102E1C00420503002DE9F84F164C174FDFF8608080
:102E2C00DFF860A00646002523785FFA85FB0BB916
:102E3C00BDE8F88F57F8043B10492246304600F0A5
:102E4C0098FD227804F1010982B9627882B10BF005
:102E5C00030103290CBF41465146304600F089FD61
:102E6C00304606F0D5F801354C46DDE74C46E8E730
:102E7C004146F2E7D4070300040000209703030047
:102E8C0084B402009403030000F00CB800F00AB8FC
:102E9C0000F008B800F006B800F004B800F002B872
:102EAC0000F000B872B61EF0080F09D01EF0040F27
:102EBC000DD0DFF850E0AEE8FF1F6FF002000CE021
:102ECC00DFF840E0AEE8FF1F6FF00E0005E0DFF822
:102EDC0034E0AEE8FF1F6FF006006946EFF309829D
:102EEC008EE8070086460848084C854501D3A54561
:102EFC0001D384F30888FFF781FC84F3088813F06E
:102F0C00B1FC000004000020C0110020E01A0020D9
:102F1C00FFF7C6BF7047000037B57F2A14BF1546B0
:102F2C0000254BF234629142044619D17F2241F2C2
:102F3C00020168460823FFF7EFFF08222449684680
:102F4C00FFF71FF830B908237F2241F2F0116846D1
:102F5C00FFF7E2FF082269462046FEF7AFFF09E0C3
:102F6C0041F2F01291421AD11A490A6C496C01389B
:102F7C001D1F0BB903B030BD013B9D4200F8012F62
:102F8C004FEA1222F5D1033400229A42F2D00132D8
:102F9C00042A04F8011F4FEA1121F6D1EAE701F4E3
:102FAC007042B2F5805F07D1C1F30B0404F17E646B
:102FBC009AB203FB0541D0E701F46042B2F5005F21
:102FCC00D8D1C1F30B0404F17E6404F58044EFE71F
:102FDC00BD0E0300B081E00F70B5054616461C46C9
:102FEC00DBB14BF23463994210D1082C28BF082472
:102FFC007F2241F202012346FFF78EFFA2B207495E
:10300C002846FEF7BEFF40B941F2F0112346324686
:10301C002846BDE87040FFF77FBF70BDBD0E0300B2
:10302C002DE9F8431646C20704460F4603D59421F2
:10303C002748FFF7C7FBF30703D595212448FFF773
:10304C00C1FB04F47043B3F5805F20D1C4F30B04CF
:10305C0004F17E64731E1F4A23449342254603D910
:10306C009A211B48FFF7AEFBDFF8649005EB0608CE
:10307C00454521D172083946204613F07FFB20B319
:10308C004FF488711248BDE8F843FFF79BBB04F47A
:10309C006043B3F5005F07D1C4F30B0404F17E6405
:1030AC0004F580442546DFE7A1210948FFF78AFB98
:1030BC006FF00F050024D7E715F8013BFF2BD7D095
:1030CC00AB214846FFF77EFBD2E7BDE8F88300BF93
:1030DC004A0E0300FF07E00FFFF7D6BE1FB5012114
:1030EC001648174C02F076FD01221146104602F0EC
:1030FC0047FF0421072003F05DFD124A1068516858
:10310C0001AB03C39068186001238DF804300D23C4
:10311C008DF80C3001A9032320468DF80D3003F0F7
:10312C0042FF094B04220221C3F8802161621A601C
:10313C00A36A0B43A36204B010BD00BF00250A00B4
:10314C0000200540C50E030000E100E0014803F03B
:10315C001EBF00BF00200540A52803D10021024856
:10316C0003F001BF704700BF00200540024B1868F8
:10317C0000F00100704700BF00200540024A936830
:10318C00002BFCD1704700BF002005400020704789
:10319C00002070477047000013B572B603F0D9F8E1
:1031AC006D4B6E495B698B6000230B76E0204B7690
:1031BC008B764023C876087748778877CB77684B2F
:1031CC008022602481F8202081F8210081F82200DF
:1031DC0081F8232083F8002383F80143202483F80B
:1031EC00024383F8034383F8042383F8052383F80D
:1031FC00062383F8072383F8082383F8092383F82D
:10320C000A2383F80B2383F80C2383F80D2383F80C
:10321C000E2383F80F2383F8102383F8112383F8EC
:10322C00122383F8132383F8142383F8152383F8CC
:10323C00162383F8172383F8182383F8192383F8AC
:10324C001A2383F81B2383F81C2383F81D2383F88C
:10325C001E2383F81F2383F8202383F8212383F86C
:10326C00222383F8234383F8242383F8252383F82C
:10327C00262383F8272383F8282383F8292383F82C
:10328C002A2383F82B2383F82C2383F82D2383F80C
:10329C002E03CB6823F4E0631B041B0C43F0BF63C9
:1032AC0043F40133CB604B6943F400734B614B69BE
:1032BC0043F010034B614FF4E0234B6200F0D8F85D
:1032CC00FFF78AFBEFF30883264A043B4FF0CD311E
:1032DC0093423DD2244A254892B20021FEF74AFE81
:1032EC0062B6234B01225A641A6842F480721A6047
:1032FC00684603F0EFFC9DF80130012B03D89DF8D4
:10330C000030022B09D91B4B4FF418721A601A4A61
:10331C005A601A4A5A661A4ADA661A4B01241C6118
:10332C0004F076F900F006FF01F06EF90023684610
:10333C000093ADF804308DF8034003F0D7F900F09A
:10334C0055F913F001FB10480DF0F6FD02B010BD5D
:10335C001960043BBCE700BF5400000000ED00E026
:10336C0000E100E080110020AC100000A000002063
:10337C0000000E408C420E409A6F050018010004AC
:10338C000084320800300E40CC28030040F201606B
:10339C0013F068BA04F03AB904F039B9FFF760B920
:1033AC0008B500210B20FFF759F9BDE80840FFF7DD
:1033BC0058B9032000F096B908B5FFF75DFB044B34
:1033CC000B289ABF00B203EB8000184608BD00BF63
:1033DC002010030008B5FFF755FB044BC0F30F2278
:1033EC00C0B253F8223003EB800008BDE40F030099
:1033FC00BFF34F8FBFF36F8F054A536A23F48033AB
:10340C005362D2F8943023F00103C2F89430704721
:10341C0000ED00E0054B01229A60022100221A61A6
:10342C00996004211A6199601A61704790ED00E06F
:10343C00084B094930B5094C094D1A465819205802
:10344C0043F8040B8B42F9D1064B1360064B074A29
:10345C001A6030BD9CED00E0BCED00E050100300A4
:10346C006412FF1F14000020A0ED00E0090008000A
:10347C0010B502F076FF0446FFF7BAFFFFF7D8FF4E
:10348C00FFF7C8FFBFF34F8FBFF36F8F064B0522BB
:10349C005A60064A536A43F4803320465362BDE8AF
:1034AC00104002F064BF00BF90ED00E000ED00E0C2
:1034BC0007282DE9F84F04460F462DD0082808BFE1
:1034CC00022421460120FEF78FF8FFF74FFE651E00
:1034DC00D5F1000848EB050800B3012C1ED1A5203E
:1034EC00FFF73AFE2646EFF31089012383F3108889
:1034FC00EFF3118A4FF0000B8BF31188354D4046DA
:10350C0006F01EF8631EC5F800B0042B59D8DFE88E
:10351C0003F00E4D4D5155000324D2E7FFF726FE64
:10352C0018B1FFF72BFE0026DDE70646DBE72A4A3B
:10353C00136923F00403136130BF284AD2F82834EE
:10354C00D2F81C2413409BB2254A2B60D2F80011F0
:10355C00490502D51168480506D4D2F80011490373
:10356C0005D51268520302D543F480332B601C4BF3
:10357C00D3F80021002A06DA1B68002BBEBF2B688B
:10358C0043F400332B601EB10121164803F0EBFC11
:10359C00404605F0EBFFCFB18AF3118889F3108810
:1035AC0021460020BDE8F84FFEF71EB8012002F0BE
:1035BC00EDFFC2E7012003F007F8BEE703F034F893
:1035CC00BBE784210848FFF7FDF8B6E787F31088BE
:1035DC00E6E700BF242C002000ED00E000A0004036
:1035EC0000E100E00020054078100300044AD2F806
:1035FC001C341B0C1B04C2F82434024A13607047A1
:10360C0000A00040202C00200021FFF751BFFFF745
:10361C00FBBF000037B5114C01230020237006F0CE
:10362C0033F9254640B1002006F02EF920B10023D5
:10363C002370492003B030BD2B7833B102237F2295
:10364C0000210DF1060024F0C9FFBDF80630002062
:10365C00B3F57F7F1CBF28700720EBE7292C0020D7
:10366C00FF2910B40C4607D80749097841B1E1B2DB
:10367C005DF8044B24F0B2BF5DF8044BFFF7ACBC13
:10368C005DF8044B704700BF292C0020FF282DE962
:10369C00F0410746884615461E4616D80E4B1B7839
:1036AC008BB10E4C237823B14FF4EF710C48FFF71C
:1036BC0089F801232370424633462946F8B224F098
:1036CC00CFFF00232370BDE8F08129461A46BDE8E0
:1036DC00F041FFF7A5BC00BF292C0020282C0020AE
:1036EC00ED100300024B1B780BB125F0A7B8704707
:1036FC00292C002070B5164685180AB9304470BDC7
:10370C0001F00F030A2B34BF302437242344013A31
:10371C00090905F8013DD2B2EFE70000F0B5F9B1A7
:10372C0000281CDA2D23B0F1004F137000D040425A
:10373C00012115E0801B8642ECB205F10105F9D997
:10374C0004B927B14D1C303454540127E9B201336C
:10375C00092B09D1303050540131C8B2F0BD0021D1
:10376C000023DFF80CC01F465CF823600025E2E75D
:10377C005C1103002DE9F04F95B04FF0000B02AC3B
:10378C0081468A4617461D465E46A0463B7863B97D
:10379C0002ABE41AE4B2224619465046C847002848
:1037AC0040F093803444E0B290E0252B13D0BBF171
:1037BC00000F14D12370013412AB9C426DD3A4EBD7
:1037CC000804E4B2224641465046C84700287CD142
:1037DC002644F6B260E0BBF1000F00D101373B7814
:1037EC00632B00F092801BD8392B09D8302B80F03A
:1037FC009E80002BCCD0252B51D04FF0000BDBE75B
:10380C00582B00F08B80622BF7D12B6801936B68DF
:10381C0000934FF0000B009B9B4543D10835ECE720
:10382C00702B1ED017D8642B01D06C2BE5D16C2BD0
:10383C0005F1040B28686CD17B78752B14BF012122
:10384C00002101D0642B00D101372246FFF766FF1F
:10385C0004445D46D1E7752BE9D0782B5ED0732BF1
:10386C00CBD1A4EB0804E4B2224602A9504605F1E0
:10387C00040B2D68C84740BB2644F6B2C4B20130D5
:10388C002B5D002BFAD1224629465046C847E0B999
:10389C0026445D46F6B283464446013776E72370EC
:1038AC000134AAE7019B204613F80B100222FFF704
:1038BC0021FF12AB984204460ED3A0EB0804E4B2ED
:1038CC00224641465046C84718B1002015B0BDE805
:1038DC00F08F2644F6B24446009B013B5B4582BF09
:1038EC0020232370013412AB9C420BD3A4EB0804AD
:1038FC00E4B2224641465046C8470028E5D126444A
:10390C00F6B244460BF1010B85E72B6823700435A6
:10391C00C6E7752B0CBF0021012196E72046022239
:10392C002978FFF7E7FE05F1040B044691E77A7856
:10393C0002F0DF02582A19D1322B07F1010B09D101
:10394C0029882F1D04222046FFF7D4FE3D4604464D
:10395C005F4652E7342B09D12F1D2D680422290C08
:10396C002046FFF7C7FE0422A9B2EDE74FF0010B8A
:10397C0022E70EB403B503AA52F8041B019205F01A
:10398C0063FEC0B202B05DF804EB03B070470000F8
:10399C000149FFF7EEBF00BF84B402000EB433B58B
:1039AC0005AA054652F8041B019205F04DFE04468B
:1039BC002846FFF7EDFFE0B202B0BDE8304003B09F
:1039CC00704708B505F040FEC0B208BD2DE9F04FB8
:1039DC009B46584B85B01B78109F9DF844A0DDF892
:1039EC005080064689461546002B00F09280072A27
:1039FC0000F291800E9B002B00F08D800F9B002B12
:103A0C0000F08980129BB3F5006F00F384800128CD
:103A1C0001D1002F7FD0484B03EB05131B7B002BF0
:103A2C007BD0464C10220021684627F02CF904EB81
:103A3C0045141022B9F1000F5CD14946204627F0FD
:103A4C0022F9A37843F01003A370E37843F030031A
:103A5C00E370BAF1000F03D1DBB243F00303E37060
:103A6C003649129BCDF800B06A01013B885A01EB34
:103A7C00020C63F30E1088520E9BCCF808300F9B8F
:103A8C00CCF804309DF84C109CF80330012E61F3F7
:103A9C0083038CF8033042D11323CCF80C309CE810
:103AAC000F000CF1100E8EE80F00DCF81C20CCF887
:103ABC0014706FF0030161F39F02B9F1010FCCF8A0
:103ACC001C2004D10F9BCCF81830CCF804701A4988
:103ADC002A018B1841F802800027159A5A60284653
:103AEC009F605E732246694602F090FF384605B02F
:103AFC00BDE8F08F0021204627F0C5F81023A370F5
:103B0C000323E370BAF1000FAAD1DBB243F0300308
:103B1C00A5E70B48EBE70B48E9E70B48E7E7B8F1FB
:103B2C00000FD4D19CF8023068F304138CF80230E7
:103B3C00CDE700BFAC2D00202C2C0020AC2C00209D
:103B4C00028000F0018000F0078000F038B5104BC7
:103B5C001B780546BBB1C0B102F003FC0D49002334
:103B6C0001EB0312147B3CB92B600123137314601B
:103B7C0002F0FDFB204638BD0133082BF0D102F0DA
:103B8C00F6FB0548F7E70548F5E70548F3E700BFFE
:103B9C00AC2D00202C2C0020048000F0028000F0C2
:103BAC00018000F038B502F0DCFB0B4A054600231F
:103BBC00D1180C7B5CB91033802BF9D102F0DAFEF2
:103BCC00064B28461C7002F0D2FB204638BD284616
:103BDC0002F0CDFB0248F9E72C2C0020AC2D002084
:103BEC00058000F00D4B1B7810B5044693B10728E7
:103BFC0012D802F0B6FB0A4B03EB04131A7B2AB162
:103C0C0000241C7302F0B3FB204610BD02F0AFFB86
:103C1C000448FAE70448F8E70448F6E7AC2D00201E
:103C2C002C2C0020068000F0028000F0018000F0B7
:103C3C0013B5164B1868019000238DF8043002F070
:103C4C0090FB134B1C7824B102F091FB114802B08D
:103C5C0010BD01221A7002F08AFB0F4B1C731C77EB
:103C6C0083F82C4083F83C4083F84C4083F85C404C
:103C7C0083F86C4083F87C4004230DEB03008DF833
:103C8C00073002F097FE2046E1E700BF80110300E9
:103C9C00AC2D0020038000F02C2C002010B588B037
:103CAC000E9C07940D9C06949DF8304005940B9C3B
:103CBC0004949DF8284003940024CDE9013400922B
:103CCC000B46024621462046FFF780FE08B010BD89
:103CDC0010B588B00E9C07940D9C06949DF830404E
:103CEC0005940B9C04949DF8284003940024CDE982
:103CFC00013400920B46024601212046FFF766FE76
:103D0C0008B010BD08B50A4B1B785BB107280BD85F
:103D1C00084B03EB00131B7B43B1002102F040FE68
:103D2C00002008BD0448FCE70448FAE70448F8E71B
:103D3C00AC2D00202C2C0020028000F0018000F023
:103D4C00078000F008B50A4B1B785BB107280BD82D
:103D5C00084B03EB00131B7B43B1012102F020FE47
:103D6C00002008BD0448FCE70448FAE70448F8E7DB
:103D7C00AC2D00202C2C0020028000F0018000F0E3
:103D8C00078000F008B50A4B1B7853B107280AD8F6
:103D9C00084B03EB00131B7B3BB102F089FE0020A8
:103DAC0008BD0548FCE70548FAE70548F8E700BFF9
:103DBC00AC2D00202C2C0020028000F0018000F0A3
:103DCC00078000F00D4B1B7893B1072812D889B1EE
:103DDC000B4B03EB00131B7B73B10A4B1A6A0123C9
:103DEC0003FA00F010401ABF00200B7008707047E7
:103DFC00054870470548704705487047AC2D0020B2
:103E0C002C2C002000200E40028000F0018000F0DD
:103E1C00078000F00B4B1B7810B50C4663B10728DC
:103E2C000CD859B1084B03EB00131B7B43B102F0C8
:103E3C0055FE2060002010BD0448FCE70448FAE75A
:103E4C000448F8E7AC2D00202C2C0020028000F058
:103E5C00018000F0078000F02DE9F843174E326E18
:103E6C00F36E12EA030800D5FEE7154CDFF8549008
:103E7C000127002518EA070F16D02368B7669BB1F7
:103E8C00A16862680131A16028469847637B012BC9
:103E9C000AD148B909EB4513197B1A7F60F341012C
:103EAC0060F3410219731A770135082D4FEA470761
:103EBC0004F11004DED1BDE8F88300BF00200E40F1
:103ECC002C2C0020AC2C002070B5094E044601258A
:103EDC0004B970BD94FAA4F0B0FA80F005FA00F3BE
:103EEC0024EA030456F82030002BF1D09847EFE772
:103EFC00B02D0020054B4FF48022C3F880211A60AE
:103F0C004FF48062C3F880211A60704700E100E032
:103F1C0038B504460D4602F024FA034B43F82450FE
:103F2C00BDE8384002F023BAB02D0020074BD3F87F
:103F3C002804D3F81C24104020F42A5020F02A0026
:103F4C004004400CC3F82404FFF7BEBF00A000409F
:103F5C00074BD3F82804D3F81C24104020F4AA40B3
:103F6C0020F055000004000CC3F82404FFF7ACBF8C
:103F7C0000A000402DE9F84F284C4FF0000A04F146
:103F8C00A00580464FF000094FF0010B237F84F809
:103F9C001DA06BB1D4E90023994508BF904510468C
:103FAC0019460AD2B2EB080063EB0901C4E900011F
:103FBC002834AC42EAD1BDE8F88FE37F33B92377DC
:103FCC00A369002BF4D084F81DB0F1E7D4E90267A3
:103FDC00B8EB000069EB010132463B4626F088FC49
:103FEC00B01A67EB030123696269002BC4E9000175
:103FFC000BDD13441D2B6361E2D9461C41F1000714
:10400C001E3BC4E900676361DAE7D31A1D2B6361B9
:10401C00D6D910F1FF3641F1FF37F1E7002E002021
:10402C0038B5074C0025637F1BB1A369216A28466C
:10403C0098470135042D04F12804F4D138BD00BF94
:10404C00002E0020064B5A6A99690A40D20705D502
:10405C0001221A62034A136801331360704700BFD0
:10406C0000200440A02E0020F0B5194E00214FF086
:10407C00FF324FF0FF337418257F3DB1D4E9004572
:10408C009D4208BF94423CBF22462B462831A029B2
:10409C00F1D1104900240C705C1C08BFB2F1FF3F39
:1040AC000C4614D000279F420B496FF0640608BFE2
:1040BC009642086038BF32460849042502440D6216
:1040CC0001234A6523704B6A43F004034B62F0BD35
:1040DC00002E0020F82D0020F42D0020002004409C
:1040EC000F4B1B7870B50546BBB102F03AF90D4980
:1040FC000023282606FB0312947F14B935B90A4C09
:10410C0007E00133042BF5D1084C02E00121917733
:10411C002B6002F02CF9204670BD054CFBE700BF6C
:10412C00F92D0020002E0020041000F0011000F0EA
:10413C00061000F070B5204D2C78002C3AD10121DE
:10414C001E481F4E01F046FD03211E4801F0BCFF26
:10415C0001211D48347101F03DFD304602F086FD11
:10416C001A49012002F068FD194B1A485A6A22F4C8
:10417C00FF6222F007025A6240F2FF721A62164A7C
:10418C009C604FF00041C2F8801111605A6A42F0F5
:10419C0001025A622146A02226F075FD0F4B1C70BD
:1041AC000F4B1C700F4B1C600F4B1C600F4B1C609B
:1041BC0001232B70002070BDF92D002000250A0072
:1041CC00C41B002005002400A0091400CD1B0020F6
:1041DC0000200440002E002000E100E0F02D002023
:1041EC00F82D0020FC2D0020A02E0020A42E002055
:1041FC002DE9F74F93465C4A1278074689461E46CE
:10420C00002A00F0AD80032800F2AC8002F0A9F87F
:10421C00564A282404FB07248046A17F924629B9DC
:10422C0002F0A5F8524803B0BDE8F08FBBF1000FC7
:10423C0008D116B10C993846B047404602F097F8B1
:10424C000020F0E74B4A4FF4004C4FF4FA70002179
:10425C009568A6614FF47A720023ECFB0B0126F0F3
:10426C0047FBB9F1010F02460B46C4E9022309D101
:10427C004FF47A7303FB0BFB1E2303FB10B3236178
:10428C000F236361282303FB07A301304FF00102C6
:10429C0041F10001C3E900011A770C9A83F81F90D1
:1042AC001A62354B1B78002BC7D1344C2368013371
:1042BC001EBF236801332360314B01931A78E2B996
:1042CC00304B2C4E1D600423336200236FF06402CC
:1042DC008B4208BF824238BF104628447065736A0F
:1042EC00019A43F004037362012313702368002BBB
:1042FC00A3D02368013B23609FE72368012BF5D1F2
:10430C00282303FB07A30026DFF86890DFF874B0BE
:10431C001E77D9F8242022F00402C9F82420DBF8F7
:10432C000000281AFFF726FEFFF77AFE26B928228E
:10433C0002FB07A2012010772846FFF795FE114BD0
:10434C00D9F808501868D9F85420019BA5EB000C3B
:10435C00121A187801360028C8D09445D9D2C5E76E
:10436C00094860E709485EE7F92D0020002E00207F
:10437C00031000F000200440F02D0020FC2D002044
:10438C00F82D0020F42D0020061000F0021000F093
:10439C002DE9F843264B1B7805460C46002B41D0E3
:1043AC00032841D8002941D001F0DBFF214B282202
:1043BC0002FB05339A7F22B901F0D9FF1E48BDE8F4
:1043CC00F8831A7F1AB901F0D2FF1C48F7E7D3E93A
:1043DC0000671B4B9D681B4BD3F8008001F0C7FF97
:1043EC000021A5EB08008F4208BF864215D3361A70
:1043FC0067EB0107B046B9464FF47A75A8FB052365
:10440C0012F5804005FB09334FEAD03243F100012D
:10441C0042EA414222600020D1E74FF000084FF001
:10442C000009E9E70848CAE70848C8E70848C6E7AA
:10443C00F92D0020002E0020031000F0051000F0D4
:10444C0000200440F42D0020061000F0021000F0B3
:10445C00041000F0F8B501F084FF084D084F2C68EB
:10446C00BE68FFF7EFFD2B689C42F8D101F07FFF8F
:10447C000022901944F10001F8BD00BFA02E0020CD
:10448C00002004402DE910484FF47A74A0FB04BCC2
:10449C001BF5804204FB01CC4CF10003D00B40EA2D
:1044AC004340BDE8108800002DE9F8431A4C01F098
:1044BC0058FF626AA1690A4022F0050153070546BC
:1044CC00216221D5154AA768154EDFF858900121B5
:1044DC0011709046636A23F0040363623068381AE3
:1044EC00FFF748FDFFF79CFD3846FFF7BDFD32682E
:1044FC00A768636DB91A9B1A99F800200AB1994202
:10450C00E8D2002388F80030FFF79CFD2846BDE870
:10451C00F84301F02CBF00BF00200440F02D002018
:10452C00F42D0020F82D0020044B4FF04042DA62AD
:10453C001A6B22F040421A63704700BF00300E40E5
:10454C002C48F0B5002203682B4D114654592CB160
:10455C001E68AC18002E36D1234601210832282AB9
:10456C00F4D101B103602549254E0B680022144695
:10457C0095592DB11F68B518002F2BD12B4601244E
:10458C000832282AF4D104B10B6000681D4B026874
:10459C0042B3DA69007922F0FF020243DA611A6B46
:1045AC0042F0804209681A630A68164BF2B1DA6964
:1045BC00097922F47F4242EA0122DA611A6B42F055
:1045CC0000421A63F0BD1E792779B74284BF234697
:1045DC000121C3E71F7995F804C0BC453CBF2B46AD
:1045EC000124CDE71A6B22F08042DBE71A6B22F034
:1045FC000042E6E7B42E0020C42E0020B82E002086
:10460C00EC2E002000300E4008B51B4B1B4801223D
:10461C001A700021282226F036FB28220021184887
:10462C0026F031FB174A184B13601849184A1360CF
:10463C000A684B6DC2F30742FF2A02D0DBB2FF2B94
:10464C0001D190231922134802EB820103EBD10113
:10465C000160DB000521B3FBF1F313440E4A136038
:10466C00FFF762FF0D4B0122C3F880211A60FFF7A0
:10467C0067FF002008BD00BFA82E0020C42E00201C
:10468C00EC2E0020B42E0020BC2E0020B081E00FB8
:10469C00B82E0020AC2E0020B02E002000E100E04F
:1046AC00064B186AC0B20523C000B0FBF3F0044BF4
:1046BC001B68181A00F3070040B2704700300E4018
:1046CC00B02E002010B5144C226B616A0A4010D534
:1046DC00124B1B681A682AB1002119605960FFF748
:1046EC00DFFF90474FF00043E362BDE81040FFF757
:1046FC0027BF5300F9D50A4B1B681A6832B1002149
:10470C0019605960FFF7CCFF01219047024B4FF025
:10471C008042DA62E9E700BF00300E40B82E00207C
:10472C00B42E0020FFF7CEBF38B141B1013AB2F53B
:10473C00006F044838BF0020704703487047014899
:10474C00704700BF037000F0027000F00D490E4A74
:10475C000B7810B54BB9C2E90033C2E9023301241E
:10476C000C7042F82300002010BD002352F82310D7
:10477C000029F6D08142F4D00133042BF6D1034842
:10478C00F2E700BF242F0020142F0020027000F04D
:10479C0038B504460D4601F0E4FDA28892B222B968
:1047AC002A6001F0E4FD064838BD6388142202FB40
:1047BC00034308332B6001F0DAFD0020F4E700BF5F
:1047CC000B7000F038B504460D4601F0CAFDA38805
:1047DC009BB223B92B6001F0CAFD0C4838BD63882D
:1047EC00E188142202FB034308332B6063885A1CB4
:1047FC0092FBF1F301FB13239BB26380A388013B73
:10480C009BB2A38001F0B3FD0020E7E70B7000F032
:10481C007FB5012380F82C3090F8323093B90C4AD4
:10482C00036803920022049002924A6801920122CA
:10483C0000920A68016980681C33FFF749FA07B0D7
:10484C005DF804FB012BEAD0002380F82C30F6E74E
:10485C00AD5000007FB5012380F82D3090F8323038
:10486C0083B9026834320D4B0393002304900293F6
:10487C004B680193012300930B68C1684068FFF7F4
:10488C000DFA07E0012B02D102682832EBE7002376
:10489C0080F82D3007B05DF804FB00BFAD48000078
:1048AC00F7B5906A01A91446FFF772FF144B9842B2
:1048BC0020D0019B00251D619D6001F052FD019AE5
:1048CC00D668074626B1D2E9002329462046B047D0
:1048DC0001A9A06AFFF776FFA06A83889BB263B137
:1048EC0001A9FFF755FF01992046FFF7B3FF3846A2
:1048FC0001F03DFD012003B0F0BD84F82D30F6E74A
:10490C000B7000F0427E30235343044A1A44437F19
:10491C0003EBC2039B001868C0B270471CA0104286
:10492C0013B51D4A002352F82340617F81420ED0FB
:10493C000133042BF7D102B010BD0028FBD19DF838
:10494C000730002BF7D06068FFF7DCF9F3E794F839
:10495C003130022BEFD12046FFF7D4FF637D207559
:10496C00022BE8D194F82E3003F0FF02002BE2D199
:10497C0002A9606801F8012DFFF724FA237D1BB111
:10498C0094F82F30002BD8D0002384F82F30606897
:10499C00FFF7D8F9CFE700BF142F002090F8323082
:1049AC0053B903680122DA601A69D007FCD55A6F33
:1049BC0042F001025A677047012B0CD103685A6C04
:1049CC009107FCD401225A609A68D207FCD55A6D23
:1049DC0042F001025A65704790F832303BB90368D7
:1049EC005A6F22F001025A670222DA607047012BDB
:1049FC0009D103685A6C9207FCD45A6D22F001025B
:104A0C005A6502225A60704710B50446FFF710F938
:104A1C000021201DFFF79AF8014608B1044810BD8B
:104A2C0004F10800FFF792F80028F8D0F6E700BF71
:104A3C000E7000F0F8B5044617460D4601F091FCD7
:104A4C00A388E2889A42064605D800233B6001F011
:104A5C008EFC1648F8BD2388142202FB034308334E
:104A6C0005F1100C2A4603CA6245186059601546B8
:104A7C0003F10803F6D1106818602388E18814222A
:104A8C0002FB034308333B6023885A1C92FBF1F36F
:104A9C0001FB13239BB22380A38801339BB23046C6
:104AAC00A38001F064FC0020D4E700BF0A7000F082
:104ABC0073B504460D46C07DE67E002934D0012333
:104ACC000422314601F014FF01230222217F207EB3
:104ADC0001F00EFF94F83130022B16D10023012285
:104AEC00617F607E01F004FF00230422A07EA17F81
:104AFC0001F0FEFE0123627F607E0193009311465C
:104B0C0001F0AAFE002002B070BD032BFAD10023E5
:104B1C000122617F607E01F0EBFE00230422A17F65
:104B2C00A07E01F0E5FEEDE70B460A46314601F0AA
:104B3C00DFFE2B462A46217F207E01F0D9FE94F819
:104B4C003130022B10D12B462A46617F607E01F05A
:104B5C00CFFE2B462A46A07EA17F01F0C9FE627FC4
:104B6C00607E01950123C9E7032BCBD12B462A4646
:104B7C00617F607E01F0BCFE2B462A46CFE790F8A1
:104B8C00323013B9036818697047012B1CD10368C4
:104B9C009B6803F00200DA0748BF40F00100590798
:104BAC0048BF40F008001A0748BF40F02000D90663
:104BBC0048BF40F040009A0648BF40F080005B06BA
:104BCC0003D540F400507047002070472DE9F341A5
:104BDC000D460446002879D001F0C3FB012D064692
:104BEC003BD1A36A9B889BB2002B3DD06068FFF73A
:104BFC00C9F80023A06A84F82D3083889BB273B166
:104C0C0001A9FFF7C5FD01996068364F0831FFF720
:104C1C0001F9019B1F61A06A83889BB253BB20469C
:104C2C00FFF7ADFF8304FAD5023D012D10D8A06823
:104C3C00FFF7A8F80023606A84F82C3083889BB2B5
:104C4C003BBB94F83130032B02D02046FFF7C4FE57
:104C5C00304601F08CFB002009E0022D38D1636A4C
:104C6C009B889BB2002BDFD101F081FB1E4802B068
:104C7C00BDE8F08101A9FFF7A5FD019BD3F80C80DD
:104C8C00B8F1000FC7D09B68002239462046C047B8
:104C9C00C1E76946FFF77CFD0099A068114F083108
:104CAC00FFF7B8F8009B1F61606A83889BB2002BEA
:104CBC00C7D06946FFF786FD009BDD68002DF3D059
:104CCC009B68002239462046A847EDE70748CEE707
:104CDC00032DA9D1A36A9B889BB2002B86D1636A52
:104CEC0080E700BF097000F0087000F0027000F05F
:104CFC00436A9888C0B270472DE9F3410546406A73
:104D0C0084889846A4B200230E461746CDE900339A
:104D1C003CB16946FFF73CFD01A90446A868FFF7C2
:104D2C0079F8009971B16CB94868019BC01A386068
:104D3C00C8F800300B6833602846FFF720FF02B03C
:104D4C00BDE8F0810021C8F8001039603160F3E74C
:104D5C00836A9888C0B270472DE9F3410546806A92
:104D6C0084889846A4B200230E461746CDE900333A
:104D7C003CB16946FFF70CFD01A904466868FFF7D2
:104D8C0049F8009971B16CB94868019BC01A386038
:104D9C00C8F800300B6833602846FFF7F0FE02B00D
:104DAC00BDE8F0810021C8F8001039603160F3E7EC
:104DBC00007D70472DE9F04104460E461746FFF77B
:104DCC00B3FC804650BB092001F0F0FA0546A26AFC
:104DDC0093889BB213B194F82E3013B394F832200D
:104DEC0022BB23681D6915F0020533D0012384F81A
:104DFC003030002A3FD13744BE42206836D1036997
:104E0C009E06FCD555B994F83230002B42D123685C
:104E1C005A6F22F002025A670822DA604046BDE857
:104E2C00F081002DD4D0FFF717F8D0E7012A1BD161
:104E3C0023689D6815F00205D8D1596C8807FCD4FD
:104E4C000421596099688907FCD5596D41F002011C
:104E5C005965CBE70421D96019698907FCD5596FCD
:104E6C0041F002015967C1E70025BFE716F8011BA5
:104E7C0002F074F8C0E7012AD0D13744B742206859
:104E8C0003D183681907FCD5BCE716F8011B01F0A8
:104E9C006AFEF3E7012BC1D123685A6C9207FCD44C
:104EAC005A6D22F002025A6508225A60B6E70000D9
:104EBC0010B50446B0B190F82E3033B990F83130BB
:104ECC00022B0AD06068FEF71DFF94F82E300133D8
:104EDC00DBB284F82E30002010BDFFF713FD002844
:104EEC00F3D1EFE70048F7E7027000F010B5044685
:104EFC00D0B190F82E30CBB190F82E30012B06D1DA
:104F0C0090F83130022B0AD06068FEF71BFF94F842
:104F1C002E30013BDBB284F82E30002010BDFFF7A1
:104F2C00F1FC0028F3D1EFE70148F7E70148F5E77A
:104F3C00027000F0057000F037B590F83150022D7A
:104F4C00044618D1A37F407D01229A40A37E3021D4
:104F5C005943134B0B4410B903F1806303E0012850
:104F6C0005D103F1C0631A60002003B030BD217D70
:104F7C000029F6D1F0E7012DF6D1037D73B9112389
:104F8C008DF80730FFF794FF2A460DF107012046F4
:104F9C00FFF710FF2046FFF7A9FFE5E71323EFE724
:104FAC000CA0004090F83130032B05D0022941753C
:104FBC0018BF0175FFF7C0BF00487047057000F0BF
:104FCC0010B5044600283AD00321FFF7FFFD00215D
:104FDC002046FFF7E7FF00212046FFF769FD94F814
:104FEC00323003BB23680A22DA600021206A00F009
:104FFC00F1FD94F83130032B03D00021607FFEF7D4
:10500C0087FF6068FEF7EEFDA068FEF7EBFDFEF78C
:10501C00C9FD636A0020188058809880A36A1880A4
:10502C005880988010BD012BDFD1206801F087FDDE
:10503C0023685A6C9207FCD40A225A60D5E70148BF
:10504C00F0E700BF027000F0F0B587B004461646DA
:10505C00FFF76AFB0546F0B9CDE9011604936A46E1
:10506C000E4B606A039601A90593FFF7E3FC054616
:10507C0088B994F82C3073B92046FFF78FFC00994F
:10508C002046FFF7C5FB94F83130032B03D0257570
:10509C002046FFF751FF284607B0F0BD017000F025
:1050AC0073B5506A01A91446FFF772FB334B984253
:1050BC002FD094F83200019B002836D12268116C55
:1050CC0011F4007128D02E49196198604FF40073C7
:1050DC00936401F046F90199CD68064635B14A68EA
:1050EC008B682046D31A0A680969A84701A9606A27
:1050FC00FFF768FB606A8588ADB2002D2FD001A93F
:10510C00FFF746FB01992046FFF782FB304601F082
:10511C002EF9012002B070BD106CC5051BD51948C5
:10512C00186199604FF48073D2E7012813D122687B
:10513C00D16A11F0800106D01149196100219960E2
:10514C0080235363C5E7D06A400604D50D48186127
:10515C0099604023F5E700221A619A60B9E70123B0
:10516C0023752046FFF7E8FE94F8313084F82C5074
:10517C00032BCBD02046FFF72FFCC7E70B7000F0BA
:10518C000D7000F00C7000F02DE9F041094F044651
:10519C000D460FCF88B001AE0FC697E8070086E822
:1051AC000700002C00F0A98245B9034E304608B028
:1051BC00BDE8F08194110300037000F0342200214B
:1051CC00204625F060FD2046FFF7C0FA0646002871
:1051DC00ECD12B7C84F83130CB4A2B682360934282
:1051EC0084F8320040F07B81C84B2362C84BE360EB
:1051FC004FF440232361D5E9062300266262168012
:10520C005680968084F82C60A3621E805E809E80FF
:10521C006B6803936B89ADF81430AB89ADF8123021
:10522C00AB7B8DF810300121EB7BBA4884F82D60F4
:10523C0084F82F6005278DF816308DF8117000F06A
:10524C00C9FC0121B44800F0C5FC0121206A00F022
:10525C00C1FC01A928688DF8046001F041FE2868A2
:10526C006A7A816F2B7ADFF8A0C221F4F85121F011
:10527C001F01114341EA0321816703214167206823
:10528C00604540F05781BB4216D9981F042840F264
:10529C006C81A3F10B00B84240F26981A3F11100BB
:1052AC00062840F26681A3F11801062940F26381B9
:1052BC001F2B14BFFF263E46042AE67540F25D8183
:1052CC00511F042940F25B81A2F10A01052940F229
:1052DC005881A2F11001062940F25581A2F1170163
:1052EC00072940F252811F2A14BFFF210021217689
:1052FC00002B58D0012B56D0022B54D0032B52D05C
:10530C00042B50D0052B4ED0062B00F04881072BD8
:10531C0000F04781082B00F04681092B00F04581F5
:10532C000A2B00F044810B2B00F04F810C2B00F06A
:10533C002E810D2B00F02D810E2B00F02C810F2BCC
:10534C0000F02B81102B00F02A81112B00F023810F
:10535C00122B00F02281132B00F02181142B00F072
:10536C002081152B00F01F81162B00F01E81172BAE
:10537C0000F01D81182B00F01C81192B00F01B81F3
:10538C001A2B00F01A811B2B00F019811C2B00F03A
:10539C0018811D2B00F017811E2B00F016811F2B7E
:1053AC000CBF0723FF23E376002A00F08881012A33
:1053BC0000F01D81022A00F08481032A00F0838111
:1053CC00042A00F08281052A00F00781062A00F0E9
:1053DC000681072A00F00581082A00F00481092AB9
:1053EC0000F003810A2A00F072810B2A00F071810F
:1053FC000C2A00F0EC800D2A00F0EB800E2A00F055
:10540C00EA800F2A00F0E980102A00F0E280112ACD
:10541C0000F0E180122A00F0E080132A00F0DF8017
:10542C00142A00F0DE80152A00F0DD80162A00F028
:10543C00DC80172A00F04181182A00F04081192ADB
:10544C0000F0D5801A2A00F03C811B2A00F03B8129
:10545C001C2A00F03A811D2A00F039811E2A00F026
:10546C0038811F2A14BFFF23002323776B7C6376BC
:10547C00AB7C6377EB7CA3762B7DA3770121204655
:10548C00FFF716FB064600287FF490AE00F069FF8C
:10549C002F7C032F804640F020812B682A8CDA6702
:1054AC005A6E42F004025A665A6F42F030025A6742
:1054BC0028684FF0FF3383642B7C032B0CBF052132
:1054CC00042101F0DDFC2B684FF44062DA602046C9
:1054DC00FFF79AFA0646404600F049FF66E60F4A87
:1054EC00934206D10E4B23620E4BE3604FF45023D4
:1054FC0080E60D4A93427FF458AE0C4B23620C4B62
:10550C00E3604FF4602375E60000014000320400B4
:10551C0001000C004041050000350A000004014068
:10552C000042040001000D0000080140005204007C
:10553C0001000E00DFF8D4C160455AD1052B7FF66F
:10554C00BBAE981F042810D9A3F10B0005280ED967
:10555C00A3F1110006280CD9A3F1180106290AD9C8
:10556C001F2B14BFFF260526A6E60126A4E602265D
:10557C00A2E60E46A0E63E469EE60021B7E60121D5
:10558C00B5E60221B3E60321B1E60521AFE6072318
:10559C0009E7082307E7092305E70A2303E70B2399
:1055AC0001E70C23FFE60D23FDE60E23FBE60F239C
:1055BC00F9E60023F7E60123F5E60223F3E60323DD
:1055CC00F1E60423EFE60523EDE60623EBE60823DC
:1055DC004BE7092349E70A2347E70B2345E70C234D
:1055EC0043E70D2341E70E233FE70F233DE702235B
:1055FC003BE7434988427FF4D8AD002B47D0591E76
:10560C000C2946D9A3F10E0106298CBFFF210521D7
:10561C000C2AE17541D9A2F10D0106293BD9A2F161
:10562C001401092939D91F2A14BFFF210021217621
:10563C00002B3ED0591E0C2931D90E2B31D00F2BFB
:10564C0031D0102B31D0112B31D0122B31D0132B58
:10565C0031D0142B14BFFF2307230C2AE3763AD93D
:10566C000D2A2AD00E2A2AD00F2A2AD0102A2AD064
:10567C00112A2AD0122A2AD0132A2AD0A2F11403D2
:10568C00092B28D91F2A14BFFF230523EDE6194641
:10569C00BEE7FF21BCE70521C9E7FF21C7E7FF23D0
:1056AC00DBE70023D9E70123D7E70323D5E704235E
:1056BC00D3E70523D1E70623CFE70023D5E6012363
:1056CC00D3E60323D1E60423CFE60523CDE6062358
:1056DC00CBE60723C9E6FF23C7E6022F7FF4E8AE2B
:1056EC00607F0849FEF714FCFEF704FCA6752675CE
:1056FC0067752046FFF720FCDAE6034E56E500BF3F
:10570C00000801402D490000027000F00004014027
:10571C0090F83120012A10B5034610D102290ED081
:10572C00827D8A4201D1002010BD997511B9FFF715
:10573C00DDFBF8E70129F6D1FFF7BAFBF3E70148E7
:10574C00F2E700BF057000F0F0B587B004461646CE
:10575C00FEF7EAFF054600BBCDE9011604936A4645
:10576C000F4BA06A039601A90593FFF763F9054651
:10577C0098B994F82D3083B900F0F3FDA36A9B8897
:10578C009BB2064633B100992046FFF763F801231C
:10579C0084F83030304600F0EAFD284607B0F0BD02
:1057AC00017000F070B588B00D220021294C2A4EF2
:1057BC0004A825F068FA00250223012127488DF85A
:1057CC001010CDE9015503958DF80A3000F002FA5E
:1057DC00294601AA204601F0EAFA4FF6FF73E3616D
:1057EC008DF81250354604A9204601F08DFA1C485C
:1057FC0000F0D2FA9DF81230D8400133DBB20A2BFC
:10580C0030608DF8123002D8164B9842EBD81648FF
:10581C00164C00F0C1FA1649B1FBF0F12868154A94
:10582C000025E1FB004500232046294625F060F8C1
:10583C00114B084A1860114B00201870936923F023
:10584C00100393610E4B4FF40062C3F880211A6071
:10585C0008B070BD00800140282F00200002040019
:10586C004041050080841E007000020020A107004A
:10587C0000B0710B40420F002C2F0020302F002065
:10588C0000E100E01E4BF7B519681E4C1E4A1F4E76
:10589C000025E0FB014520462946002325F028F889
:1058AC00DFF86CC04FF6E85400254FF6E75E4FF07A
:1058BC00FF378D4208BF844211D380B260B1144AC5
:1058CC00516A89B2536A9BB2ADF80630BDF8063006
:1058DC005B1A9BB29842F5D8002003B0F0BDDCF8FF
:1058EC00242092B2DCF824309BB2ADF80430BDF821
:1058FC0004309B1A9BB27345F4D980197941D8E7CF
:10590C00282F002020A1070040420F001802FFFFA3
:10591C0000800140044BDA68D20604D510225A618B
:10592C00024B01221A70704700800140302F00207A
:10593C002D4B002A70B52D4D446B08BF1D462C4BCA
:10594C0014BF1026002698423AD102293FD004D821
:10595C00B9B1012921D000232DE0062931D08129AC
:10596C0035D00329F7D1234B1A6819681B68120C20
:10597C001B0C03F0F00302F4FE421A43C1F3034381
:10598C0018E01D490B680A6803F4FE4302F00F028D
:10599C001A430B6803F0F0030CE0174A1368116804
:1059AC0012681B0C120C02F0F00203F4FE431343BA
:1059BC00C1F303421343B3402C400D4A23435363BA
:1059CC0070BD0E4B1A681B6802F00F02E2E7094A21
:1059DC0013681168126803F4FE4301F00F010B43C6
:1059EC0002F0F002E6E700BF0080FFFFFFFF00803F
:1059FC00002000401482E00F1082E00F1882E00FAC
:105A0C0038B50C4602238360002289780546FFF7DF
:105A1C008FFF207961786279030243EA016343EADC
:105A2C000243E27843EAC203E2790AB143F000533D
:105A3C00227A0AB143F00403A2790AB143F00203BB
:105A4C00627A0AB143F00103F328A27806D12AB98D
:105A5C0003299CBF23F0706343F0806351B200298B
:105A6C00ACBF43EA421343F0E0032B616B6900299E
:105A7C0023F4F21323F00703BCBF22F0800213437C
:105A8C00227843EA4243E27A0AB143F480436B61E1
:105A9C006D0105F18445A37AAB6038BD0C4B98427F
:105AAC0010D90C4B984210D9022201230A490B60E1
:105ABC000A49D1F8003123F0807343EA0263C1F83C
:105ACC000031704700221346F0E70122FBE700BFCC
